:020000040800F2
:1000000000000120050300080B030008110300088D
:1000100033030008390300085B03000800000000F8
:100020000000000000000000000000007D03000848
:100030008303000800000000890300088F03000804
:10004000AD030008AD030008AD030008AD030008D0
:10005000AD030008AD030008AD030008AD030008C0
:10006000AD030008AD030008AD030008AD030008B0
:10007000AD030008AD030008AD030008AD030008A0
:10008000AD030008AD030008AD0300080000000048
:10009000000000000000000000000000AD030008A8
:1000A000AD030008AD030008AD030008AD03000870
:1000B000AD030008AD030008AD030008AD03000860
:1000C000AD030008AD030008AD030008AD03000850
:1000D000AD030008AD030008AD03000800000000F8
:1000E000AD030008AD030008AD03000800000000E8
:1000F000000000000000000000000000AD03000848
:1001000000000000AD030008AD030008AD030008C7
:1001100000000000000000000000000000000000DF
:10012000AD030008AD030008AD030008AD030008EF
:10013000AD03000800000000000000000000000007
:10014000000000000000000000000000AD030008F7
:10015000AD030008AD030008AD030008AD030008BF
:10016000AD030008AD03000800000000000000001F
:10017000000000000000000000000000000000007F
:1001800000000000AD0300080000000000000000B7
:10019000AD03000880B596B000AF00F037F94F4BC3
:1001A0007B6524E07B6D1A1D7A651B683B647B6D63
:1001B0001A1D7A651B68FB637B6D1A1D7A651B68C7
:1001C000BB633B6C7B63FB6B3B63BB6BFB623B6B5F
:1001D000BB6207E07A6B131D7B63BB6A191DB962B2
:1001E00012681A60FA6ABB6A9A42F3D800BF7B6D44
:1001F0003B4A9342D6D33B4B3B651AE03B6D1A1DFD
:100200003A651B68BB643B6D1A1D3A651B687B64CD
:10021000BB6C7B627B6C3B627B6AFB6104E0FB69CD
:100220001A1DFA6100221A603A6AFB699A42F6D8EE
:1002300000BF3B6D2C4A9342E0D300F0F5F83A1D25
:1002400007F108031146184600F0CEF8274A284B5C
:10025000D31A9B103B610023FB6007E0244AFB6834
:1002600052F823309847FB680133FB603A69FB681A
:100270009A42F3DC1F4A204BD31A9B103B610023A8
:10028000FB6007E01C4AFB6852F823309847FB6884
:100290000133FB603A69FB689A42F3DC00BFBB683C
:1002A0007A681146184600F06BF9F864134A144B4B
:1002B000D31A9B10BB61BB697B6108E07B69013B82
:1002C0000F4A52F8233098477B69013B7B617B6979
:1002D000002BF3DC00BFF86C00F080F8B4030008DA
:1002E000CC030008CC030008DC030008DC03000892
:1002F000DC030008DC030008DC030008DC03000862
:10030000DC0300082548004700BF80B400AFFEE7CB
:100310001EF0040F0CBFEFF30880EFF30980714665
:100320001F4A104700BF80B483B000AF78603960C7
:10033000FEE780B400AFFEE71EF0040F0CBFEFF342
:100340000880EFF309807146164A104700BF80B459
:1003500083B000AF78603960FEE71EF0040F0CBF79
:10036000EFF30880EFF3098071460F4A104700BF92
:1003700080B483B000AF78603960FEE780B400AF2E
:10038000FEE780B400AFFEE780B400AFFEE780B4C4
:1003900000AF00BFBD4680BC70470000950100085B
:1003A000270300084F0300087103000880B400AF62
:0203B000FEE766
:1003B400480C0008000000200C000020480C000835
:1003C40000000010000000100C00002010000020AD
:0803D400000000100000001001
:1003DC0080B582B000AF786000F03CF880B483B098
:1003EC0000AF786039607B6801221A603B68034A71
:1003FC001A6000BF0C37BD4680BC7047000000205F
:10040C0080B500AF00F02AF8024B034A9A6000BF97
:10041C0080BD00BF00ED00E00000000880B500AF1B
:10042C0000F028F800BF80BD80B400AFBFF34F8F41
:10043C0000BF064BDB6803F4E0620449044B134332
:10044C00CB60BFF34F8F00BF00BFFDE700ED00E0B6
:10045C000400FA0580B500AFFFF7E6FF80B400AFEB
:10046C00034B4FF000629A6000BFBD4680BC7047E2
:10047C0000ED00E080B487B000AF00233B610023A7
:10048C007B610223FB600023BB6002237B60344B47
:10049C009B6803F00C033B613B69082B11D03B6953
:1004AC00082B44D83B69002B03D03B69042B04D0A8
:1004BC003DE02C4B2C4A1A603DE02A4B2B4A1A602B
:1004CC0039E0274B5B689B0D03F00103BB60244BA9
:1004DC005B6803F03F037B60BB68002B0CD0234AA6
:1004EC007B68B2FBF3F31E4A52689209C2F308020E
:1004FC0002FB03F37B610BE01B4A7B68B2FBF3F35B
:10050C00174A52689209C2F3080202FB03F37B619B
:10051C00134B5B681B0C03F0030301335B00FB60A4
:10052C007A69FB68B2FBF3F30E4A136003E00D4BE0
:10053C000D4A1A6000BF0A4B9B681B0903F00F039E
:10054C000B4AD35C3B61074B1A683B6922FA03F3F5
:10055C00044A136000BF1C37BD4680BC704700BF07
:10056C0000380240080000200024F40000127A0039
:10057C00380C000880B582B000AF00F0D9F801202B
:10058C0000F0E4F800237B6005237B6009E07B68C6
:10059C00D9B200230122422000F02CF97B680133F0
:1005AC007B607B68072BF2D90123002203214220B8
:1005BC0000F020F90023FB700321422000F0E8FA40
:1005CC000346002BF8D1FB78072B00F2938001A295
:1005DC0052F823F001060008210600084106000825
:1005EC006106000881060008A1060008C106000883
:1005FC00E106000801220521422000F0E5F9002265
:10060C000621422000F0E0F900220721422000F0F0
:10061C00DBF96FE000220521422000F0D5F9012220
:10062C000621422000F0D0F900220721422000F0E0
:10063C00CBF95FE001220521422000F0C5F901222F
:10064C000621422000F0C0F900220721422000F0D0
:10065C00BBF94FE000220521422000F0B5F9002241
:10066C000621422000F0B0F901220721422000F0BF
:10067C00ABF93FE001220521422000F0A5F9002250
:10068C000621422000F0A0F901220721422000F0AF
:10069C009BF92FE000220521422000F095F9012260
:1006AC000621422000F090F901220721422000F09F
:1006BC008BF91FE001220521422000F085F901226F
:1006CC000621422000F080F901220721422000F08F
:1006DC007BF90FE000220521422000F075F9002281
:1006EC000621422000F070F900220721422000F080
:1006FC006BF900BF00237B6002E07B6801337B60F9
:10070C007B680A4A9342F8D9FB780133FB70FB787B
:10071C00082B01D10023FB7000BF0321422000F005
:10072C0037FA0346002BF8D046E700BF3F420F00D4
:10073C0080B400AF044B1B68034A43F00103136001
:10074C0000BFBD4680BC70470038024080B485B005
:10075C0000AF0346FB71FB795B09FB73FB7903F07C
:10076C001F03BB73FB7B032B36D801A252F823F07B
:10077C008D070008A3070008B9070008CF07000879
:10078C00184B1B68BA7B012101FA02F21146154A7B
:10079C000B43136021E0144B1B68BA7B012101FA57
:1007AC0002F21146104A0B43136016E00F4B1B6804
:1007BC00BA7B012101FA02F211460C4A0B43136079
:1007CC000BE00B4B1B68BA7B012101FA02F21146BC
:1007DC00074A0B43136000E000BF00BF1437BD464F
:1007EC0080BC7047303802403438024040380240F8
:1007FC004438024090B482B000AF0446084611461B
:10080C001A462346FB710346BB710B467B7113469C
:10081C003B71FB79413B032B00F2C08001A252F8E3
:10082C0023F000BF410800089B080008F5080008E9
:10083C004F0900085C4B1B68BA795200032101FA7E
:10084C0002F2D2431146584A0B401360564B1B68B8
:10085C007979BA79520001FA02F21146524A0B43E5
:10086C001360524B1B68BA79012101FA02F2D24390
:10087C0011464E4A0B4013604C4B1B683979BA79C0
:10088C0001FA02F21146494A0B43136086E0484BC9
:10089C001B68BA795200032101FA02F2D2431146C5
:1008AC00434A0B401360424B1B687979BA7952006A
:1008BC0001FA02F211463E4A0B4313603D4B1B6892
:1008CC00BA79012101FA02F2D2431146394A0B409E
:1008DC001360384B1B683979BA7901FA02F2114668
:1008EC00344A0B43136059E0334B1B68BA795200FE
:1008FC00032101FA02F2D24311462F4A0B40136036
:10090C002D4B1B687979BA79520001FA02F2114623
:10091C00294A0B431360294B1B68BA79012101FA50
:10092C0002F2D2431146254A0B401360234B1B683D
:10093C003979BA7901FA02F21146204A0B43136055
:10094C002CE01F4B1B68BA795200032101FA02F20A
:10095C00D24311461A4A0B401360194B1B68797924
:10096C00BA79520001FA02F21146154A0B43136090
:10097C00144B1B68BA79012101FA02F2D2431146D9
:10098C00104A0B4013600F4B1B683979BA7901FA86
:10099C0002F211460B4A0B43136000BF00BF08372D
:1009AC00BD4690BC704700BF0000024004000240EE
:1009BC000004024004040240000802400408024003
:1009CC00000C0240040C024080B485B000AF03461A
:1009DC00FB710B46BB7113467B71FB79413B032BBF
:1009EC0000F2C08001A252F823F000BF090A0008EF
:1009FC00630A0008BD0A0008170B00085C4B1B6853
:100A0C00BA795200032101FA02F21A40BB795B0059
:100A1C0022FA03F3012B1BD17B79002B0AD0554B07
:100A2C001B687979BA7901FA02F21146514A0B43E3
:100A3C0013600AE04F4B1B68BA79012101FA02F2EC
:100A4C00D24311464B4A0B4013600023FB7389E0E1
:100A5C000123FB7386E0484B1B68BA7952000321D3
:100A6C0001FA02F21A40BB795B0022FA03F3012B64
:100A7C001BD17B79002B0AD0404B1B687979BA7952
:100A8C0001FA02F211463D4A0B4313600AE03B4B5C
:100A9C001B68BA79012101FA02F2D2431146374A96
:100AAC000B4013600023FB735CE00123FB7359E0E4
:100ABC00334B1B68BA795200032101FA02F21A4037
:100ACC00BB795B0022FA03F3012B1BD17B79002B42
:100ADC000AD02C4B1B687979BA7901FA02F21146CB
:100AEC00284A0B4313600AE0264B1B68BA79012194
:100AFC0001FA02F2D2431146224A0B401360002342
:100B0C00FB732FE00123FB732CE01F4B1B68BA799E
:100B1C005200032101FA02F21A40BB795B0022FA5F
:100B2C0003F3012B1BD17B79002B0AD0174B1B68CD
:100B3C007979BA7901FA02F21146144A0B4313601F
:100B4C000AE0124B1B68BA79012101FA02F2D24376
:100B5C0011460E4A0B4013600023FB7301E0012386
:100B6C00FB7300BFFB7B18461437BD4680BC704737
:100B7C000000024014000240000402401404024031
:100B8C000008024014080240000C0240140C024001
:100B9C0080B485B000AF03460A46FB711346BB71A7
:100BAC00FB79413B032B33D801A252F823F000BF51
:100BBC00CD0B0008E10B0008F50B0008090C000830
:100BCC00164B1A68BB7922FA03F3DBB203F001036C
:100BDC00FB731DE0124B1A68BB7922FA03F3DBB2EC
:100BEC0003F00103FB7313E00E4B1A68BB7922FA76
:100BFC0003F3DBB203F00103FB7309E00A4B1A6841
:100C0C00BB7922FA03F3DBB203F00103FB7300BFE1
:100C1C00FB7B18461437BD4680BC70471000024061
:100C2C001004024010080240100C024000000000AA
:0C0C3C0000000000010203040607080984
:0C0C48000C000020000000000024F4005C
:040000050800019559
:00000001FF
