:020000040800F2
:100000000000012061030008690300087103000873
:10001000F90300080104000855040008000000006E
:10002000000000000000000000000000A90400081B
:10003000B104000800000000B9040008C104000871
:10004000D9040008D9040008D9040008D90400081C
:10005000D9040008D9040008D9040008D90400080C
:10006000D9040008D9040008D9040008D9040008FC
:10007000D9040008D9040008D9040008D9040008EC
:10008000D9040008D9040008D904000800000000C1
:10009000000000000000000000000000D90400087B
:1000A000D9040008D9040008D9040008D9040008BC
:1000B000D9040008D9040008D9040008D9040008AC
:1000C000D9040008D9040008D9040008D90400089C
:1000D000D9040008D9040008D90400080000000071
:1000E000D9040008D9040008D90400080000000061
:1000F000000000000000000000000000D90400081B
:1001000000000000D9040008D9040008D904000840
:1001100000000000000000000000000000000000DF
:10012000D9040008D9040008D9040008D90400083B
:10013000D9040008000000000000000000000000DA
:10014000000000000000000000000000D9040008CA
:10015000D9040008D9040008D9040008D90400080B
:10016000D9040008D90400080000000000000000C5
:10017000000000000000000000000000000000007F
:1001800000000000D904000800000000000000008A
:10019000D904000880B596B000AF00F04BFB5F4B70
:1001A0005F4A1A605F4B5E4A1A605F4B7B6524E0D2
:1001B0007B6D1A1D7A651B683B647B6D1A1D7A6521
:1001C0001B68FB637B6D1A1D7A651B68BB633B6C08
:1001D0007B63FB6B3B63BB6BFB623B6BBB6207E010
:1001E0007A6B131D7B63BB6A191DB96212681A60B2
:1001F000FA6ABB6A9A42F3D800BF7B6D4B4A9342BE
:10020000D6D3464B1B684A4A934204D1454B1B68E0
:10021000484A934200D0FEE7474B414A1A60474B99
:100220003F4A1A60464B3B651AE03B6D1A1D3A6522
:100230001B68BB643B6D1A1D3A651B687B64BB6C15
:100240007B627B6C3B627B6AFB6104E0FB691A1D8D
:10025000FA6100221A603A6AFB699A42F6D800BF36
:100260003B6D384A9342E0D3334B1B68002B03D1DC
:10027000324B1B68002B00D0FEE700F0E9FA3A1D74
:1002800007F108031146184600F07CF92E4A2F4B5F
:10029000D31A9B103B610023FB6007E02B4AFB68ED
:1002A00052F823309847FB680133FB603A69FB68DA
:1002B0009A42F3DC264A274BD31A9B103B6100235A
:1002C000FB6007E0234AFB6852F823309847FB683D
:1002D0000133FB603A69FB689A42F3DC00BFBB68FC
:1002E0007A681146184600F045FBF8641A4A1B4B21
:1002F000D31A9B10BB61BB697B6108E07B69013B42
:10030000164A52F8233098477B69013B7B617B6931
:10031000002BF3DC00BFF86C00F0FAF800000020BE
:10032000BABADECA74000020E0040008F80400082D
:100330007856341232547698780000201401002048
:10034000F80400080805000808050008080500086A
:100350000805000808050008080500080805000849
:1003600080B500AFFFF716FF80B400AF00BEFEE718
:100370001EF0040F0CBFEFF30880EFF30980714605
:10038000524A104700BF80B588B002AF786039602C
:10039000174B5B6B7B61164B9B6B3B61144B9B6AF2
:1003A000FB60134B1B6B03F00203002B10D0104BB0
:1003B000DB6A002B0CDA4BF6AB61786800F010FAC0
:1003C0000346002B04D00A4B4FF00042DA620CE0E7
:1003D000084800F04DF93B6800933B697A69F96879
:1003E000786800F067F900BEFEE71837BD4680BDAB
:1003F00000ED00E00415000880B400AF00BEFEE789
:100400001EF0040F0CBFEFF30880EFF30980714674
:100410002F4A104700BF80B588B002AF78603960BE
:100420000A4B5B6B7B61094B9B6B3B61074B9B6A88
:10043000FB60074800F01CF93B6800933B697A6950
:10044000F968786800F036F900BEFEE700ED00E0DC
:10045000141500081EF0040F0CBFEFF30880EFF333
:10046000098071461B4A104700BF80B588B002AFB3
:10047000786039600A4B5B6B7B61094B9B6B3B611E
:10048000074B9B6AFB60074800F0F2F83B6800935B
:100490003B697A69F968786800F00CF900BEFEE7FC
:1004A00000ED00E02015000880B400AF00BEFEE7BC
:1004B00080B400AF00BEFEE780B400AF00BEFEE730
:1004C00080B400AF00BFBD4680BC70478703000802
:1004D000170400086B04000880B400AF00BEFEE7FC
:1004E0007415000800000020780000207415000832
:1004F000000000100000001078000020180100200B
:080500000000001000000010D3
:1005100080B483B000AF7860FEE7000080B584B09F
:1005200000AF7860144B1B68002B02D1124B134AAA
:100530001A60114B1B68FB607B68033323F00303D5
:100540007B600D4B1A687B6813440D4A934207D9B0
:1005500000F06EFA03460C221A604FF0FF3306E0FB
:10056000054B1A687B681344034A1360FB681846FE
:100570001037BD4680BD00BF7C0000201801002060
:1005800000FC002080B483B000AF786039607B68E5
:1005900001221A603B68034A1A6000BF0C37BD464F
:1005A00080BC70470400002080B582B000AF786046
:1005B00039603968786800F005F80346184608374E
:1005C000BD4680BDB0B590B000AF786039607A6844
:1005D0003B68134493F90030002B0BD104233B6399
:1005E0007B68FB623C6BFD6A20462946ABBE044635
:1005F000BC6237E03B68FB6331E0FB6B102B28BF2C
:1006000010237B630023BB630EE07B6893F900102B
:1006100007F10C02BB6B13440A461A70BB6B013323
:10062000BB637B6801337B60BA6B7B6B9A42ECD314
:1006300007F10C02BB6B134400221A7004237B6287
:1006400007F10C033B627C6A3D6A20462946ABBE3B
:100650000446FC6100BFFA6B7B6BD31AFB63FB6B38
:10066000002BCAD13B6818464037BD46B0BD0000DC
:100670000FB480B582B000AF07F114033B603B6854
:100680003A6980210A4800F005FA78607B68002BFF
:1006900005DD7B6819460648FFF786FF78607B68B2
:1006A00018460837BD46BDE8804004B0704700BF1B
:1006B0008800002080B584B000AFF860B9607A602F
:1006C0003B603448FFF7D4FFFB681B68194632488B
:1006D000FFF7CEFFFB685B6819463048FFF7C8FF9D
:1006E000FB689B6819462E48FFF7C2FFFB68DB6872
:1006F00019462C48FFF7BCFFFB681B6919462A48BE
:10070000FFF7B6FFFB685B6919462848FFF7B0FFA3
:10071000FB689B6919462648FFF7AAFFFB68DB695F
:1007200019462448FFF7A4FF2348FFF7A1FFB96843
:100730002248FFF79DFF224BDB6A19462148FFF74D
:1007400097FF1F4B1B6B19461F48FFF791FF1C4B70
:10075000DB6B19461D48FFF78BFFBB6803F0800376
:10076000002B03D079681A48FFF782FFBB6803F4B7
:100770000043002B03D039681648FFF779FF16486D
:10078000FFF776FFB9691548FFF772FF00BF103712
:10079000BD4680BDE8130008F813000808140008DF
:1007A0001814000828140008381400084814000819
:1007B000581400086814000878140008841400080D
:1007C00000ED00E094140008A4140008B41400081C
:1007D000C4140008D4140008E4140008EC14000841
:1007E00080B485B000AF78600B467B807B689B69E6
:1007F000FB60FB681B887A889A4214D17B681B686F
:10080000BB60BB68032B04D0BB68042B03D0002360
:100810000AE000BF00E000BF7B689B699A1C7B6810
:100820009A61012300E0002318461437BD4680BCBE
:100830007047000080B500AF00F010F8024B034A8B
:100840009A6000BF80BD00BF00ED00E0000000081E
:1008500080B500AF00F00EF800BF80BD80B400AFDF
:10086000034B4FF000629A6000BFBD4680BC7047EA
:1008700000ED00E080B487B000AF00233B610023AF
:100880007B610223FB600023BB6002237B60344B4F
:100890009B6803F00C033B613B69082B11D03B695B
:1008A000082B44D83B69002B03D03B69042B04D0B0
:1008B0003DE02C4B2C4A1A603DE02A4B2B4A1A6033
:1008C00039E0274B5B689B0D03F00103BB60244BB1
:1008D0005B6803F03F037B60BB68002B0CD0234AAE
:1008E0007B68B2FBF3F31E4A52689209C2F3080216
:1008F00002FB03F37B610BE01B4A7B68B2FBF3F363
:10090000174A52689209C2F3080202FB03F37B61A3
:10091000134B5B681B0C03F0030301335B00FB60AC
:100920007A69FB68B2FBF3F30E4A136003E00D4BE8
:100930000D4A1A6000BF0A4B9B681B0903F00F03A6
:100940000B4AD35C3B61074B1A683B6922FA03F3FD
:10095000044A136000BF1C37BD4680BC704700BF0F
:10096000003802400C0000200024F40000127A003D
:100970003015000880B483B000AF00237B600023F3
:100980003B60244B1B68234A43F002031360224B55
:100990001B68214A43F4A84313601F4B1B681E4A7F
:1009A00023F4284313601D4B1B681C4A23F0E0030B
:1009B0001360194B1B68184A23F0C0031360184BCF
:1009C0001B68174A43F040031360154B1B68144A19
:1009D00023F08003136000233B6002E03B68013397
:1009E0003B603B680F4A9342F8D90F4B1B6803F0FA
:1009F0000803002BEFD17B6801337B600B4A7B68D7
:100A00005B01136000BF084B1B6803F00803002B59
:100A1000F9D0E0E73038024000040240040402400C
:100A20000C0402409F86010010040240140402409E
:100A3000014B1868704700BF1000002030B5144605
:100A4000002C9BB005461A4605DA8B2303604FF055
:100A5000FF301BB030BD4FF40273ADF80C3014BF43
:100A600004F1FF332346029305934FF6FF73009181
:100A70000491ADF80E3069461E9B00F075F8431CDA
:100A8000BCBF8B232B60002CE3D0009B00221A708C
:100A9000DFE7000007B5009313460A460146034806
:100AA0000068FFF7CBFF03B05DF804FB10000020E7
:100AB0002DE9F0478E689E4282460C4690461F46BE
:100AC00038D88A8912F4906F32D025680969A5EB6D
:100AD0000109656905EB450505EBD57501334B4407
:100AE0006D109D4238BF1D46530531D5294600F093
:100AF000B1FB064650B90C23CAF80030A38943F075
:100B00004003A3814FF0FF30BDE8F08721694A46DA
:100B100000F00EFBA38923F4906343F08003A381CC
:100B2000266165614E44A5EB09052660A5603E4639
:100B3000BE4200D93E4620683246414600F006FBE0
:100B4000A3689B1BA3602368334423600020DBE77A
:100B50002A4600F0F3FB06460028E1D12169504601
:100B600000F00EFBC7E700002DE9F04F98468B8997
:100B70001B069DB007460D4614460ED50B6963B99A
:100B8000402100F067FB2860286120B90C233B60FE
:100B90004FF0FF30D1E040236B6100230993202305
:100BA0008DF82930CDF80C803023DFF8A8818DF83E
:100BB0002A304FF0010923469A4613F8012B0AB157
:100BC000252AF9D1BAEB040B0BD05B462246294605
:100BD0003846FFF76DFF013000F0AA80099A5A44A9
:100BE00009929AF80030002B00F0A28000234FF009
:100BF000FF32CDE905230AF1010A049307938DF82A
:100C000053301A935446052214F8011B514800F042
:100C10003FFA049AD8B9D00644BF20238DF8533048
:100C2000110744BF2B238DF853309AF800302A2B3C
:100C300015D0079A544600204FF00A0C214611F8AF
:100C4000013B303B092B4ED9B0B1079214E0A0EB29
:100C5000080309FA03F313430493A246D2E7039B64
:100C6000191D1B680391002BBBBF5B4242F00202BF
:100C700007930793B8BF049223782E2B0CD1637887
:100C80002A2B35D1039B1A1D1B680392002BB8BF7A
:100C90004FF0FF3302340593DFF8BCA02178032224
:100CA000504600F0F5F940B14023A0EB0A0003FAEA
:100CB00000F0049B03430134049314F8011B2748FC
:100CC0008DF82810062200F0E3F9002838D0244BD4
:100CD0001BBB039B073323F0070308330393099BD4
:100CE0003344099367E70CFB02320C460120A5E769
:100CF00000230134059319464FF00A0C204610F8E2
:100D0000012B303A092A03D9002BC5D00591C3E73E
:100D10000CFB012104460123F0E703AB00932A46B4
:100D2000104B04A93846AFF30080421C0646D6D1CA
:100D3000AB895B063FF52CAF09981DB0BDE8F08F7D
:100D400003AB00932A46074B04A9384600F07AF813
:100D5000EBE700BF40150008461500084A150008DB
:100D600000000000B10A00082DE9F0471646994638
:100D70008A680B69DDF820809342B8BF1346336060
:100D800091F8432007460C460AB1013333602368CB
:100D9000990642BF336802333360256815F00605B3
:100DA00006D104F1190AE36832689B1AAB4226DCCB
:100DB00094F84320131E226818BF012392062BD4F7
:100DC00004F1430249463846C04701301ED023682B
:100DD000E568326803F00603042B08BFAD1AA36868
:100DE00022690CBF25EAE57500259342C4BF9B1A12
:100DF000ED1800261A34B5421AD1002008E001236C
:100E0000524649463846C047013003D14FF0FF30C3
:100E1000BDE8F0870135C6E7E1185A1C302081F89B
:100E20004300224494F8451082F843100233C7E788
:100E30000123224649463846C0470130E6D00136F4
:100E4000D9E700002DE9FF470F7E0C9D782F9146D2
:100E500080460C469A4601F1430207D8622F0AD811
:100E6000002F00F0D880582F00F0A38004F1420535
:100E700084F842703AE0A7F16303152BF6D801A17C
:100E800051F823F0DD0E0008F10E00086D0E000889
:100E90006D0E00086D0E00086D0E0008F10E0008C2
:100EA0006D0E00086D0E00086D0E00086D0E000836
:100EB000FD0F0008210F0008DF0F00086D0E00086D
:100EC0006D0E00081F1000086D0E0008210F0008AD
:100ED0006D0E00086D0E0008E70F00082B681A1D44
:100EE0001B682A6004F1420584F842300123A3E024
:100EF00020682968060601F104030AD50E682B60F4
:100F0000002E03DA2D23764284F843305E480A230C
:100F100019E00E682B6010F0400F18BF36B2EFE7F3
:100F20002B682068191D2960010601D51E6802E0A2
:100F30004606FBD51E8854486F2F0CBF08230A2392
:100F4000002184F843106568A560002DA2BF2168C8
:100F500021F0040121600EB9002D4DD01546B6FBDD
:100F6000F3F103FB1167C75D05F8017D3746BB420E
:100F70000E46F4D9082B0BD12368DE0708D5236968
:100F800061689942DEBF302305F8013C05F1FF3569
:100F9000521B2261CDF800A04B4603AA21464046D1
:100FA000FFF7E2FE01304CD14FF0FF3004B0BDE856
:100FB000F087354881F845702968236851F8046B3B
:100FC00029601D0614D5DF0744BF43F020032360CA
:100FD0001EB9236823F0200323601023B0E72368A1
:100FE00043F0200323607823284884F84530E3E762
:100FF000590648BFB6B2E6E71546BBE72B68266838
:101000006169181D286035061B6801D5196002E06A
:101010007006FBD51980002323611546BAE72B68BB
:101020001A1D2A601D6862680021284600F030F809
:1010300008B1401B606063682361002384F843307B
:10104000A8E723692A4649464046D0470130ABD03D
:1010500023689B0713D4E068039B9842B8BF1846E7
:10106000A4E70123324649464046D04701309BD091
:101070000135E36803995B1AAB42F2DCEBE700252C
:1010800004F11906F5E700BF5115000862150008C4
:1010900001F0FF01102A2BDB10F0070F08D010F829
:1010A000013B013A8B422DD010F0070F42B3F6D12D
:1010B000F0B441EA012141EA014122F007047FF046
:1010C00000070023F0E80256083C85EA010586EA9D
:1010D000010685FA47F5A3FA87F586FA47F6A5FAD9
:1010E00087F68EB9EED1F0BC01F0FF0102F00702E5
:1010F00032B110F8013B013A83EA010313B1F8D190
:101100000020704701387047002D06BF3546033870
:10111000073815F0010F07D1013015F4807F02BFA9
:10112000013015F4C03F0130F0BC0138704700BFFA
:101130000A44914200F1FF3300D1704710B511F815
:10114000014B03F8014F9142F9D110BD884210B50F
:1011500001EB020402D98442234607D8431EA14270
:1011600008D011F8012B03F8012FF8E702440146DB
:101170008A4200D110BD13F8014D02F8014DF7E786
:1011800038B50546002941D051F8043C0C1F002B0E
:10119000B8BFE41800F012F91D4A136833B9636050
:1011A00014602846BDE8384000F00EB9A34208D9C3
:1011B000206821188B4201BF19685B6809182160FB
:1011C000EDE71A465B680BB1A342FAD911685018D3
:1011D000A0420BD120680144501883421160E0D135
:1011E00018685B68536001441160DAE702D90C2388
:1011F0002B60D6E7206821188B4204BF19685B6812
:10120000636004BF091821605460CAE738BD00BF9D
:101210000801002070B50E4E0C463168054611B924
:1012200000F0BCF830602146284600F0B7F8431CB7
:101230000AD0C41C24F00304A04207D0211A284677
:1012400000F0ACF8013001D14FF0FF34204670BD02
:101250000C0100202DE9F041CD1C25F003050835D7
:101260000C2D38BF0C25002D074601DBA94205D9FE
:101270000C233B6000263046BDE8F0812E4E00F086
:101280009DF833681C4634BB29463846FFF7C2FF39
:10129000431C04464DD134682646002E40D12368B5
:1012A0003146384604EB030800F078F880453AD11F
:1012B000216803356D1A25F0030508350C2D38BF5C
:1012C0000C2529463846FFF7A5FF01302BD02368AF
:1012D0002B4423600EE02268521B1ED40B2A16D921
:1012E0006119A342256018BF5960636808BF316067
:1012F00062514B60384604F10B0600F065F826F0A9
:101300000706231DF21AB6D09B1BA350B3E76268F1
:10131000A3420CBF32605A60ECE723466468B2E730
:1013200034467668B9E70C233B60384600F04CF849
:10133000A1E72560DEE700BF080100202DE9F041AC
:10134000804614460E4621B9BDE8F0411146FFF72C
:1013500081BF2AB9FFF714FF25462846BDE8F08172
:1013600000F038F88442074602D8B4EB500F12D888
:1013700021464046FFF76EFF05460028EDD0BC42EF
:101380002246314628BF3A46FFF7D2FE3146404654
:10139000FFF7F6FEE1E73546DFE7000038B5064D1A
:1013A0000023044608462B60FFF7B8F8431C02D11F
:1013B0002B6803B1236038BD80000020014800F095
:1013C00011B800BF10010020014800F00CB800BFA8
:1013D0001001002051F8043C181F002BBCBF0B5813
:1013E000C018704770477047537461636B20667212
:1013F000616D653A0A000000205230203D20202512
:101400003038580A00000000205231203D202025AD
:101410003038580A00000000205232203D2020259C
:101420003038580A00000000205233203D2020258B
:101430003038580A0000000020523132203D20256B
:101440003038580A00000000204C52203D20202552
:101450003038580A00000000205043203D2020254D
:101460003038580A0000000020505352203D2025FB
:101470003038580A000000004653522F4641523A75
:101480000A0000002043465352203D2020253038DA
:10149000580A00002048465352203D20202530386D
:1014A000580A00002044465352203D202025303861
:1014B000580A00002041465352203D202025303854
:1014C000580A0000204D4D464152203D202530381D
:1014D000580A00002042464152203D202025303845
:1014E000580A00004D6973630A000000204C522F17
:1014F0004558435F52455455524E3D20253038588B
:101500000A0000005B486172644661756C745D0A94
:10151000000000005B4275734661756C745D0A00E3
:101520005B55736167654661756C745D0A00000008
:101530000000000000000000010203040607080983
:10154000232D302B2000686C4C00656667454647AC
:10155000003031323334353637383941424344452F
:10156000460030313233343536373839616263649E
:03157000656600AD
:101574007856341284000020000000000024F40097
:101584001400002000000000000000000000000023
:101594000000000000000000000000000000000047
:1015A4000000000000000000000000000000000037
:1015B4000000000000000000000000000000000027
:1015C4000000000000000000000000000000000017
:1015D4000000000000000000000000000000000007
:0815E40000000000325476986B
:040000050800019559
:00000001FF
