:020000040800F2
:1000000000000120050300080B030008110300088D
:1000100033030008390300085B03000800000000F8
:100020000000000000000000000000007D03000848
:100030008303000800000000890300088F03000804
:10004000AD030008AD030008AD030008AD030008D0
:10005000AD030008AD030008AD030008AD030008C0
:10006000AD030008AD030008AD030008AD030008B0
:10007000AD030008AD030008AD030008AD030008A0
:10008000AD030008AD030008AD0300080000000048
:10009000000000000000000000000000AD030008A8
:1000A000AD030008AD030008AD030008AD03000870
:1000B000AD030008AD030008AD030008AD03000860
:1000C000AD030008AD030008AD030008AD03000850
:1000D000AD030008AD030008AD03000800000000F8
:1000E000AD030008AD030008AD03000800000000E8
:1000F000000000000000000000000000AD03000848
:1001000000000000AD030008AD030008AD030008C7
:1001100000000000000000000000000000000000DF
:10012000AD030008AD030008AD030008AD030008EF
:10013000AD03000800000000000000000000000007
:10014000000000000000000000000000AD030008F7
:10015000AD030008AD030008AD030008AD030008BF
:10016000AD030008AD03000800000000000000001F
:10017000000000000000000000000000000000007F
:1001800000000000AD0300080000000000000000B7
:10019000AD03000880B596B000AF00F037F94F4BC3
:1001A0007B6524E07B6D1A1D7A651B683B647B6D63
:1001B0001A1D7A651B68FB637B6D1A1D7A651B68C7
:1001C000BB633B6C7B63FB6B3B63BB6BFB623B6B5F
:1001D000BB6207E07A6B131D7B63BB6A191DB962B2
:1001E00012681A60FA6ABB6A9A42F3D800BF7B6D44
:1001F0003B4A9342D6D33B4B3B651AE03B6D1A1DFD
:100200003A651B68BB643B6D1A1D3A651B687B64CD
:10021000BB6C7B627B6C3B627B6AFB6104E0FB69CD
:100220001A1DFA6100221A603A6AFB699A42F6D8EE
:1002300000BF3B6D2C4A9342E0D300F0F5F83A1D25
:1002400007F108031146184600F0CEF8274A284B5C
:10025000D31A9B103B610023FB6007E0244AFB6834
:1002600052F823309847FB680133FB603A69FB681A
:100270009A42F3DC1F4A204BD31A9B103B610023A8
:10028000FB6007E01C4AFB6852F823309847FB6884
:100290000133FB603A69FB689A42F3DC00BFBB683C
:1002A0007A681146184600F06BF9F864134A144B4B
:1002B000D31A9B10BB61BB697B6108E07B69013B82
:1002C0000F4A52F8233098477B69013B7B617B6979
:1002D000002BF3DC00BFF86C00F080F8B4030008DA
:1002E000CC030008CC030008DC030008DC03000892
:1002F000DC030008DC030008DC030008DC03000862
:10030000DC0300082548004700BF80B400AFFEE7CB
:100310001EF0040F0CBFEFF30880EFF30980714665
:100320001F4A104700BF80B483B000AF78603960C7
:10033000FEE780B400AFFEE71EF0040F0CBFEFF342
:100340000880EFF309807146164A104700BF80B459
:1003500083B000AF78603960FEE71EF0040F0CBF79
:10036000EFF30880EFF3098071460F4A104700BF92
:1003700080B483B000AF78603960FEE780B400AF2E
:10038000FEE780B400AFFEE780B400AFFEE780B4C4
:1003900000AF00BFBD4680BC70470000950100085B
:1003A000270300084F0300087103000880B400AF62
:0203B000FEE766
:1003B400F00F00080000002020000020F00F0008CB
:1003C4000000001000000010200000203C0000206D
:0803D400000000100000001001
:1003DC0080B582B000AF786000F03CF880B483B098
:1003EC0000AF786039607B6801221A603B68034A71
:1003FC001A6000BF0C37BD4680BC7047000000205F
:10040C0080B500AF00F02AF8024B034A9A6000BF97
:10041C0080BD00BF00ED00E00000000880B500AF1B
:10042C0000F028F800BF80BD80B400AFBFF34F8F41
:10043C0000BF064BDB6803F4E0620449044B134332
:10044C00CB60BFF34F8F00BF00BFFDE700ED00E0B6
:10045C000400FA0580B500AFFFF7E6FF80B400AFEB
:10046C00034B4FF000629A6000BFBD4680BC7047E2
:10047C0000ED00E080B487B000AF00233B610023A7
:10048C007B610223FB600023BB6002237B60344B47
:10049C009B6803F00C033B613B69082B11D03B6953
:1004AC00082B44D83B69002B03D03B69042B04D0A8
:1004BC003DE02C4B2C4A1A603DE02A4B2B4A1A602B
:1004CC0039E0274B5B689B0D03F00103BB60244BA9
:1004DC005B6803F03F037B60BB68002B0CD0234AA6
:1004EC007B68B2FBF3F31E4A52689209C2F308020E
:1004FC0002FB03F37B610BE01B4A7B68B2FBF3F35B
:10050C00174A52689209C2F3080202FB03F37B619B
:10051C00134B5B681B0C03F0030301335B00FB60A4
:10052C007A69FB68B2FBF3F30E4A136003E00D4BE0
:10053C000D4A1A6000BF0A4B9B681B0903F00F039E
:10054C000B4AD35C3B61074B1A683B6922FA03F3F5
:10055C00044A136000BF1C37BD4680BC704700BF07
:10056C0000380240080000200024F40000127A0039
:10057C00E00F000880B584B002AF00F0DBF900207A
:10058C0000F0E6F9012000F0E3F96E2000F0E0F94C
:10059C00402000F0DDF9002300930123002200210C
:1005AC00412000F029FA00230093012300220421AA
:1005BC00412000F021FA00230093002301220021A6
:1005CC00422000F019FA0023009300230122052198
:1005DC00422000F011FA00230093002301220A218B
:1005EC00422000F009FA002300930023012201218C
:1005FC00422000F001FA00F08DFC0021412000F0B7
:10060C0029FC03467B600421412000F023FC0346B7
:10061C003B60664B1B68012B25D13B68002B1CD122
:10062C00634B1B68002B18D14FF4FA7000F08EFC52
:10063C0001220021422000F051FB01220521422021
:10064C0000F04CFB01220A21422000F047FB594BE1
:10065C0001221A60564B01221A60554B1B68012B64
:10066C0001D100F0B3F8514B1B68002BC5D1524B94
:10067C001B68002B6ED1514B1B68002B06D042F22D
:10068C00107000F063FC4D4B00221A607B68002B4D
:10069C0008D1494B01221A6000F0CCF8444B0122DE
:1006AC001A604FE03B68002B1FD1414B1B68002B9D
:1006BC0048D100220021422000F010FB012205212C
:1006CC00422000F00BFB00220A21422000F006FB26
:1006DC00384B01221A60364B01221A60384B01222A
:1006EC001A60384B01221A602CE03B68012B29D18F
:1006FC007B68012B26D1344B1B68002B22D02C4B52
:10070C0000221A6000F056FC0346002B1AD000227F
:10071C000021422000F0E2FA01220521422000F0E3
:10072C00DDFA00220A21422000F0D8FA254B0122E2
:10073C001A60234B01221A601E4B01221A60224BB5
:10074C0000221A601E4B1B68002B3FF456AF00F0C2
:10075C00A1F852E7184B1B68012B7FF44EAF7B6856
:10076C00002B1DD1124B1B68002B7FF446AF0022CF
:10077C000021422000F0B2FA00220521422000F0B4
:10078C00ADFA01220A21422000F0A8FA4FF47A7047
:10079C0000F0DCFB064B01221A6000F063F82CE73A
:1007AC00034B00221A6000F05DF826E70C000020D5
:1007BC002400002014000020280000201C00002031
:1007CC0030000020100000201800002080B500AF81
:1007DC00154B1B68012B11D100F0ECFB0346002BD1
:1007EC001FD0114B00221A6000220521422000F07C
:1007FC0075FA40F2DC5000F0A9FB12E000F0DAFBD5
:10080C000346002B0DD000220A21422000F066FA8C
:10081C00064B00221A60064B00221A60024B012282
:10082C001A6000BF80BD00BF140000200C00002027
:10083C002400002080B500AF00220021422000F0EF
:10084C004DFA00220521422000F048FA01220A212B
:10085C00422000F043FA024B01221A6000BF80BD17
:10086C001C00002080B500AF00F0A4FB0346002B59
:10087C000AD000220A21422000F030FA034B002259
:10088C001A60034B00221A6000BF80BD24000020B8
:10089C002800002080B500AF1F4B1B68022B2ADC00
:1008AC001E4B1B68002B06D04FF4FA7000F04EFB69
:1008BC001A4B00221A6000F07DFB0346002B29D056
:1008CC00164B01221A60144B1B680133124A136039
:1008DC00134B1B68002B0CBF01230023DBB21A4601
:1008EC000F4B1A600E4B1B68DBB21A4605214220D7
:1008FC0000F0F4F90EE0084B00221A60094B0022BC
:10090C001A60094B01221A60084B01221A60084B2D
:10091C0001221A6000BF80BD2C00002010000020B6
:10092C001400002030000020180000200C000020D3
:10093C001C00002080B400AF044B1B68034A43F03A
:10094C000103136000BFBD4680BC704700380240F5
:10095C0080B485B000AF0346FB71FB795B09FB7378
:10096C00FB7903F01F03BB73FB7B032B36D801A26F
:10097C0052F823F091090008A7090008BD090008E6
:10098C00D3090008184B1B68BA7B012101FA02F24B
:10099C001146154A0B43136021E0144B1B68BA7BBC
:1009AC00012101FA02F21146104A0B43136016E0C2
:1009BC000F4B1B68BA7B012101FA02F211460C4A5B
:1009CC000B4313600BE00B4B1B68BA7B012101FA44
:1009DC0002F21146074A0B43136000E000BF00BF50
:1009EC001437BD4680BC7047303802403438024062
:1009FC00403802404438024090B482B000AF044604
:100A0C00084611461A462346FB710346BB710B463A
:100A1C007B7113463B71FB79413B032B00F2388110
:100A2C0001A252F823F000BF450A0008DD0A0008B5
:100A3C00750B00080B0C00089C4B1B68BA79520014
:100A4C00032101FA02F2D2431146984A0B4013607B
:100A5C00964B1B687979BA79520001FA02F2114669
:100A6C00924A0B4313607B79012B15D1904B1B6879
:100A7C00BA79012101FA02F2D24311468C4A0B4099
:100A8C0013608B4B1B683979BA7901FA02F2114663
:100A9C00874A0B431360FDE07B79002B40F0FA8012
:100AAC00844B1B68BA795200012101FA02F2D2433D
:100ABC001146804A0B4013607E4B1B683979BA791A
:100ACC00520001FA02F211467A4A0B431360E1E03C
:100ADC00794B1B68BA795200032101FA02F2D24316
:100AEC001146754A0B401360734B1B687979BA79C0
:100AFC00520001FA02F211466F4A0B4313607B79E4
:100B0C00012B15D16D4B1B68BA79012101FA02F248
:100B1C00D2431146694A0B401360684B1B68397904
:100B2C00BA7901FA02F21146644A0B431360B3E03E
:100B3C007B79002B40F0B080614B1B68BA79520076
:100B4C00012101FA02F2D24311465D4A0B401360B7
:100B5C005B4B1B683979BA79520001FA02F21146E3
:100B6C00574A0B43136097E0564B1B68BA795200F7
:100B7C00032101FA02F2D2431146524A0B40136090
:100B8C00504B1B687979BA79520001FA02F211467E
:100B9C004C4A0B4313607B79012B15D14A4B1B68D4
:100BAC00BA79012101FA02F2D2431146464A0B40AE
:100BBC001360454B1B683979BA7901FA02F2114678
:100BCC00414A0B43136069E07B79002B66D13F4BA4
:100BDC001B68BA795200012101FA02F2D243114684
:100BEC003A4A0B401360394B1B683979BA79520079
:100BFC0001FA02F21146354A0B4313604EE0344BB6
:100C0C001B68BA795200032101FA02F2D243114651
:100C1C002F4A0B4013602E4B1B687979BA7952001E
:100C2C0001FA02F211462A4A0B4313607B79012B1D
:100C3C0015D1284B1B68BA79012101FA02F2D24373
:100C4C001146244A0B401360224B1B683979BA7940
:100C5C0001FA02F211461F4A0B43136020E07B7924
:100C6C00002B1DD11C4B1B68BA79012101FA02F231
:100C7C00D2431146184A0B401360174B1B68397945
:100C8C00BA7901FA02F21146134A0B43136007E0DA
:100C9C0000BF06E000BF04E000BF02E000BF00E0C0
:100CAC0000BF00BF0837BD4690BC70470000024033
:100CBC00040002400C000240000402400404024004
:100CCC000C04024000080240040802400C080240D8
:100CDC00000C0240040C02400C0C024080B483B0A7
:100CEC0000AF0346FB710B46BB7113467B71FB795E
:100CFC00413B032B00F2988001A252F823F000BF75
:100D0C001D0D0008630D0008A90D0008EF0D00086B
:100D1C00484B1B68BA795200012101FA02F21340C8
:100D2C00002B16D0444B1B68BA79012101FA02F250
:100D3C00D2431146404A0B4013603F4B1B687979F4
:100D4C00BA7901FA02F211463B4A0B4313600023B5
:100D5C006BE0012369E0394B1B68BA795200012121
:100D6C0001FA02F21340002B16D0354B1B68BA79EE
:100D7C00012101FA02F2D2431146314A0B401360B1
:100D8C002F4B1B687979BA7901FA02F211462C4A79
:100D9C000B431360002348E0012346E0294B1B68FA
:100DAC00BA795200012101FA02F21340002B16D03D
:100DBC00254B1B68BA79012101FA02F2D243114684
:100DCC00214A0B401360204B1B687979BA7901FAE0
:100DDC0002F211461C4A0B431360002325E0012349
:100DEC0023E01A4B1B68BA795200012101FA02F276
:100DFC001340002B16D0164B1B68BA79012101FA4F
:100E0C0002F2D2431146124A0B401360104B1B687E
:100E1C007979BA7901FA02F211460D4A0B43136043
:100E2C00002302E0012300E000BF18460C37BD464A
:100E3C0080BC7047000002401400024000040240D5
:100E4C00140402400008024014080240000C024046
:100E5C00140C024080B485B000AF03460A46FB7107
:100E6C001346BB71FB79413B032B43D801A252F8CB
:100E7C0023F000BF910E0008AD0E0008C90E00084B
:100E8C00E50E00081F4B1B68BA79012101FA02F22A
:100E9C001340002B14BF01230023DBB2FB732AE0A9
:100EAC00194B1B68BA79012101FA02F21340002B8D
:100EBC0014BF01230023DBB2FB731CE0134B1B6834
:100ECC00BA79012101FA02F21340002B14BF01235D
:100EDC000023DBB2FB730EE00D4B1B68BA790121CA
:100EEC0001FA02F21340002B14BF01230023DBB2E2
:100EFC00FB7300E000BFFB7B18461437BD4680BC7B
:100F0C00704700BF1000024010040240100802405D
:100F1C00100C024080B400AF4FF080431B684FF0C0
:100F2C00804223F0020313604FF080431B684FF0A4
:100F3C00804243F0800313604FF0804342F6F72267
:100F4C009A6200BFBD4680BC7047000080B483B07D
:100F5C0000AF7860154A7B681360154B00221A604D
:100F6C004FF080427B68D3624FF0804300225A627C
:100F7C004FF080435B694FF0804243F001035361B3
:100F8C004FF080431B694FF0804223F00103136143
:100F9C004FF080431B684FF0804243F00103136015
:100FAC0000BF0C37BD4680BC704700BF340000202A
:100FBC003800002080B400AF4FF080431B6903F071
:100FCC000103002B01D0012300E000231846BD468D
:100FDC0080BC704700000000000000000102030408
:040FEC0006070809E3
:100FF00020000020000000000024F4000100000098
:1010000001000000010000000100000001000000DC
:040000050800019559
:00000001FF
